:100000000C94F6010C94B4170C94E5170C94161884
:100010000C9447180C9478180C94A9180C94DA18BE
:100020000C940B190C9427020C9427020C942702B1
:100030000C9427020C9427020C9427020C9427029C
:100040000C9427020C94AE080C9427020C942702FF
:100050000C9427020C9427020C9427020C943C1950
:100060000C9427020C9427020C9427020C9427026C
:100070000C9427020C9427020C9427020C9427025C
:100080000C9427020C9427020C9427020C9427024C
:100090000C9427020C9427020C9427020C9427023C
:1000A0000C9427020C9427020C9427020C9427022C
:1000B0000C9427020C9427020C9427020C9427021C
:1000C0000C9427020C9427020C9427020C9427020C
:1000D0000C9427020C9427020C9427020C942702FC
:1000E0000C942702000005072060000000000000BB
:1000F000005F00000007000700147F147F14242A0B
:100100007F2A1223130864623649552250000503E2
:100110000000001C2241000041221C00082A1C2A69
:100120000808083E080800503000000808080808C1
:10013000006060000020100804023E5149453E0066
:10014000427F400042615149462141454B311814DC
:10015000127F1027454545393C4A4949300171090C
:1001600005033649494936064949291E00363600F5
:100170000000563600000008142241141414141410
:1001800041221408000201510906324979413E7E9C
:100190001111117E7F494949363E414141227F413B
:1001A00041221C7F494949417F090901013E4141E2
:1001B00051327F0808087F00417F41002040413FC5
:1001C000017F081422417F404040407F0204027FAB
:1001D0007F0408107F3E4141413E7F090909063EE8
:1001E0004151215E7F09192946464949493101019A
:1001F0007F01013F4040403F1F2040201F7F2018CB
:10020000207F631408146303047804036151494593
:100210004300007F4141020408102041417F00005B
:10022000040201020440404040400001020400205A
:10023000545454787F484444383844444420384423
:1002400044487F3854545418087E09010208145455
:10025000543C7F0804047800447D40002040443D25
:1002600000007F10284400417F40007C041804787F
:100270007C0804047838444444387C141414080876
:100280001414187C7C080404084854545420043F77
:100290004440203C4040207C1C2040201C3C4030FE
:1002A000403C44281028440C5050503C4464544C6A
:1002B00044000836410000007F000000413608007D
:1002C00008082A1C08081C2A08080000090A020855
:1002D0000B0C0D07060304010000000000000000E5
:1002E000000000000000000000000000000000000E
:1002F00000000000000011100F00000000000000CE
:1003000000000000000000000000000000000000ED
:100310000102102020080810204010204080020117
:1003200002010804020101020408102040808040FC
:1003300020100804020180040201804020100804FB
:100340000201080402010102040810204080010299
:100350000408102040800505050507050808080861
:10036000020202020A0A080804040404010101014D
:100370000101010103030303030303030407070748
:100380000C0C0C0C0C0C0C0C0202020206060606ED
:10039000060606060B0B0B0B0B0B0B0B00002000CD
:1003A0002300260029002C002F003200000100004D
:1003B00003010601090100002200250028002B008E
:1003C0002E003100340002010000050108010B017C
:1003D00000002100240027002A002D0030003300F7
:1003E00001010000040107010A017D1D11241FBE47
:1003F000CFEFD1E2DEBFCDBF00E00CBF13E0A0E045
:10040000B2E0ECEBF1E500E00BBF02C007900D920B
:10041000AE36B107D9F714E0AEE6B3E001C01D92E5
:10042000AF31B107E1F713E0CCEED3E000E006C056
:1004300022970109FE010BBF0E94C228CA3ED107C4
:1004400080E00807A9F70E94581B0C94DC280C9444
:1004500000000895EF920F93E12C01E02FE744E3B1
:1004600060E088E094E00E945C1D8091740382301B
:1004700009F455C130F4882359F0813009F0B5C230
:10048000AFC0833009F4C3C1843009F0AEC230C2BA
:1004900040E066E088E094E00E94D82465E072E0E5
:1004A00088E094E00E94A31B60E088E094E00E9452
:1004B0001E2541E061E088E094E00E94D8246DE0D0
:1004C00072E088E094E00E94A31B60E088E094E082
:1004D0000E941E2543E061E088E094E00E94D82459
:1004E00062E172E088E094E00E94A31B60E088E093
:1004F00094E00E941E2542E061E088E094E00E94C2
:10050000D8246EE172E088E094E00E94A31B60E0D2
:1005100088E094E00E941E2544E061E088E094E0D9
:100520000E94D82468E272E088E094E00E94A31B55
:1005300060E088E094E00E941E2545E061E088E0EC
:1005400094E00E94D82465E372E088E094E00E9481
:10055000A31B60E088E094E00E941E25EE24EA944C
:1005600000E028E144E361E088E094E00E945C1D43
:1005700080917703811109C047E060E088E094E052
:100580000E94D82461E472E01DC047E060E088E08A
:1005900094E00E94D82467E572E088E094E00E942D
:1005A000A31B60E088E094E00E941E258091760302
:1005B00081110DC040E061E088E094E00E94D82401
:1005C0006DE672E088E094E00E94A31B07C240E061
:1005D00061E088E094E00E94D82462E872E0F2CF03
:1005E00040E066E088E094E00E94D82467E972E089
:1005F00088E094E00E94A31B60E088E094E00E9401
:100600001E2541E061E088E094E00E94D8246DE07E
:1006100072E088E094E00E94A31B60E088E094E030
:100620000E941E2542E061E088E094E00E94D82408
:100630006EE172E088E094E00E94A31B60E088E035
:1006400094E00E941E2543E061E088E094E00E946F
:10065000D82460E088E094E00E941E2544E061E038
:1006600088E094E00E94D82469E172E088E094E098
:100670000E94A31B60E088E094E00E941E2545E0F4
:1006800061E088E094E00E94D82461EA72E088E0AA
:1006900094E00E94A31B60E088E094E00E941E2585
:1006A000EE24EA9400E028E144E36AE188E094E083
:1006B0000E945C1D8091770347E060E0811112C0C9
:1006C00088E094E00E94D82461E472E088E094E03D
:1006D0000E94A31B60E088E094E00E941E2543E096
:1006E00061E078C188E094E00E94D82467E572E078
:1006F00088E094E00E94A31B60E088E094E00E9400
:100700001E2580917603882309F454CF40E061E0F0
:1007100088E094E00E94D82469EA72E053CF40E078
:1007200066E088E094E00E94D8246EEB72E088E0F6
:1007300094E00E94A31B60E088E094E00E941E25E4
:1007400041E061E088E094E00E94D8246DE072E02E
:1007500088E094E00E94A31B60E088E094E00E949F
:100760001E2542E061E088E094E00E94D8246EE11A
:1007700072E088E094E00E94A31B60E088E094E0CF
:100780000E941E2543E061E088E094E00E94D824A6
:1007900060E088E094E00E941E2544E061E088E08B
:1007A00094E00E94D82469E172E088E094E00E941D
:1007B000A31B60E088E094E00E941E2545E061E014
:1007C00088E094E00E94D82461EA72E088E094E036
:1007D0000E94A31B60E088E094E00E941E25EE24A6
:1007E000EA9400E028E144E363E388E094E00E94B7
:1007F0005C1D80917703882309F4BECE47E060E05A
:1008000088E094E00E94D82465EC72E0DBCE40E002
:1008100066E088E094E00E94D8246BED72E088E006
:1008200094E00E94A31B60E088E094E00E941E25F3
:1008300041E061E088E094E00E94D8246DE072E03D
:1008400088E094E00E94A31B60E088E094E00E94AE
:100850001E2543E061E088E094E00E94D82469E12D
:1008600072E088E094E00E94A31B60E088E094E0DE
:100870000E941E2542E061E088E094E00E94D824B6
:100880006EE172E088E094E00E94A31B60E088E0E3
:1008900094E00E941E2544E061E088E094E00E941C
:1008A000D82463EE72E088E094E00E94A31B60E02D
:1008B00088E094E00E941E2545E061E088E094E035
:1008C0000E94D8246BEE72E088E094E00E94A31BA3
:1008D00060E088E094E00E941E25EE24EA9400E0A7
:1008E00028E144E36CE488E094E00E945C1D44CE7F
:1008F00040E066E088E094E00E94D82463EF72E074
:1009000088E094E00E94A31B60E088E094E00E94ED
:100910001E2541E061E088E094E00E94D8246CEF5D
:1009200072E088E094E00E94A31B60E088E094E01D
:100930000E941E2542E061E088E094E00E94D824F5
:1009400063EE72E088E094E00E94A31B60E088E020
:1009500094E00E941E2543E061E088E094E00E945C
:10096000D8246BEE72E088E094E00E94A31B60E064
:1009700088E094E00E941E2544E061E088E094E075
:100980000E94D82463E073E088E094E00E94A31BF7
:1009900060E088E094E00E941E2545E061E088E088
:1009A00094E00E94D8246AE073E088E094E00E941A
:1009B000A31B60E088E094E00E941E25EE24EA94E8
:1009C00000E028E144E365E688E094E00E945C1DD5
:1009D00047E060E088E094E00E94D82460E088E08E
:1009E00094E00F91EF900C941E250F91EF900895D5
:1009F000EF920F93E12C01E322E040E060E088E019
:100A000094E00E945C1D809175038230B9F028F457
:100A1000882341F0813041F50BC08330A9F0843048
:100A200019F518C0EE24EA9406E020E048E017C06B
:100A3000EE24EA9406E020E040E111C0EE24EA94BE
:100A400006E020E048E10BC0EE24EA9406E020E056
:100A500040E205C0EE24EA9406E020E048E261E0CE
:100A600088E094E00E945C1D0F91EF9008958091C2
:100A70007403823009F4CFC030F4882359F08130F8
:100A800009F041C27DC0833009F410C1843009F0FF
:100A90003AC2ABC18091DA0380FD92C141E06EE0C1
:100AA00088E094E00E94D8244091A0035091A103D3
:100AB000662757FD6095762F88E094E00E947D259B
:100AC00060E088E094E00E941E2543E06EE088E04C
:100AD00094E00E94D824609170037091710380911A
:100AE0007203909173030E94122720E030E048E4E3
:100AF00053E40E947726AB01BC0122E030E088E09D
:100B000094E00E944A1D60E088E094E00E941E2567
:100B100044E06EE088E094E00E94D8246091AA034B
:100B20007091AB038091AC039091AD030E941227AA
:100B300020E030E048E453E40E947726AB01BC019A
:100B400022E030E088E094E00E944A1D60E088E006
:100B500094E00E941E2545E06EE088E094E00E944B
:100B6000D8246091A6037091A7038091A803909167
:100B7000A9030E94122720E030E048EC52E411C1A2
:100B80008091DA0380FD1CC141E06EE088E094E0D2
:100B90000E94D82440919D0350919E0360E070E034
:100BA00088E094E00E947D2560E088E094E00E9467
:100BB0001E2544E06EE088E094E00E94D824609115
:100BC000AE037091AF038091B0039091B1030E9486
:100BD000122720E030E048E453E40E947726AB017E
:100BE000BC0122E030E088E094E00E944A1D60E011
:100BF00088E094E00E941E2545E06EE088E094E0E5
:100C00000E94D8242091B2033091B3034091B403E1
:100C10005091B503BCC08091DA0380FDD1C041E0A2
:100C20006EE088E094E00E94D82440919D035091AA
:100C30009E0360E070E088E094E00E947D2560E023
:100C400088E094E00E941E2544E06EE088E094E095
:100C50000E94D8246091B6037091B7038091B803C5
:100C60009091B9030E94122720E030E048E453E459
:100C70000E947726AB01BC0122E030E088E094E0DE
:100C80000E944A1D60E088E094E00E941E2545E035
:100C90006EE088E094E00E94D8242091BA0330915D
:100CA000BB034091BC035091BD0371C08091DA0336
:100CB00080FD86C041E06EE088E094E00E94D82488
:100CC00040919D0350919E0360E070E088E094E0C5
:100CD0000E947D2560E088E094E00E941E2543E0AC
:100CE0006EE088E094E00E94D8246091BE03709189
:100CF000BF038091C0039091C1030E94122720E09E
:100D000030E048E453E40E947726AB01BC0122E0C6
:100D100030E088E094E00E944A1D60E088E094E0C2
:100D20000E941E2544E06EE088E094E00E94D824F2
:100D30002091C2033091C3034091C4035091C50375
:100D4000A0E9B1E00E9439280E94122720E030E596
:100D500045EF57E40E947726AB01BC0122E030E06A
:100D600088E094E00E944A1D60E088E094E00E94E0
:100D70001E2545E06EE088E094E00E94D824209192
:100D8000C6033091C7034091C8035091C903A0E93D
:100D9000B1E00E9439280E94122720E030E545EF9B
:100DA00057E40E947726AB01BC0122E030E088E0E6
:100DB00094E00E944A1D60E088E094E00E941E25B5
:100DC00042E06EE088E094E00E94D82460918003C5
:100DD0007091810380918203909183030E94122776
:100DE00020E030E048E453E47FC08091DA0380FDE6
:100DF0008AC041E06EE088E094E00E94D8246091CF
:100E0000D2037091D3038091D4039091D5030E94B3
:100E1000122720E030E04AE754E40E947726AB0135
:100E2000BC0122E030E088E094E00E944A1D60E0CE
:100E300088E094E00E941E2544E06EE088E094E0A3
:100E40000E94D8244091D6035091D7036091D803D3
:100E50007091D9032AE030E088E094E00E94081CF9
:100E600060E088E094E00E941E2542E06EE088E0A9
:100E700094E00E94D8242091CA033091CB03409182
:100E8000CC035091CD03A0E9B1E00E9439280E9423
:100E9000122720E030E545EF57E40E947726AB01AA
:100EA000BC0122E030E088E094E00E944A1D60E04E
:100EB00088E094E00E941E2543E06EE088E094E024
:100EC0000E94D8242091CE033091CF034091D003CB
:100ED0005091D103A0E9B1E00E9439280E94122765
:100EE00020E030E545EF57E40E947726AB01BC01D6
:100EF00022E030E088E094E00E944A1D60E088E053
:100F000094E00C941E2508958091DC0383FD21C09C
:100F100061E08AE00E94F81A60E089E00E94F81A15
:100F20008091DC038770853091F1809180039091EE
:100F30008103A0918203B09183030196A11DB11D8D
:100F40008093800390938103A0938203B0938303E3
:100F50001EC08770853099F0809180039091810345
:100F6000A0918203B09183030197A109B1098093F5
:100F7000800390938103A0938203B093830360E086
:100F80008AE00E94F81A60E089E00E94F81A83E083
:100F900090E00E94E81961E089E00C94F81ACF9281
:100FA000DF92EF92FF920F931F93CF93DF93EC01A9
:100FB0008B018091DC03D7FF07C088608093DC033E
:100FC000D195C195D10903C0877F8093DC039091AF
:100FD000DC0393FB882780F994FB222720F990916A
:100FE000DA03821719F09061906201C09F7E90939E
:100FF000DA032091DC0380FB24F92093DC03C13069
:10100000D105A1F48FEF9FEF9093E6038093E50362
:10101000822F887F82608093DC0388EE93E0909338
:10102000DE038093DD038091DA0371C0209709F419
:101030007CC0980140E050E06CEE77EF87E190E0F3
:101040000E9492283093E4032093E30389E99DE111
:101050009093DE038093DD039801D8010E942D2830
:1010600024EA32E341E050E00E9492282115310544
:1010700011F421E030E0AE01662757FD6095762F30
:1010800075956795579547954115510521F024179A
:10109000350750F002C041E050E04C1B5D0B50930F
:1010A000E2034093E10307C0319521953109309364
:1010B000E2032093E1038091E1039091E203892B05
:1010C00031F48FEF9FEF9093E2038093E1038091DF
:1010D000E1039091E2038C0F9D1F9093E0038093B6
:1010E000DF039091DA038091DC03887F94FF02C0D4
:1010F000856001C081608093DC038091DA03982FC2
:101100009471943091F01092E6031092E50381609F
:101110008093DA038AE090E09093890080938800BE
:1011200080918100826080938100DF91CF911F9137
:101130000F91FF90EF90DF90CF900895ECEDF3E0EA
:101140008081887F8083E1E8F0E080818061808316
:10115000EFE6F0E080818260808308951F920F9215
:101160000FB60F9211240BB60F924F925F926F92AF
:101170007F928F929F92AF92BF92CF92DF92EF9227
:10118000FF920F931F932F933F934F935F936F9310
:101190007F938F939F93AF93BF93CF93DF93EF93FF
:1011A000FF938091DD039091DE03909389008093FB
:1011B00088008091DC03877090E08230910509F40B
:1011C00041C134F4009761F0019709F095C127C03F
:1011D0008330910509F402C1059709F08DC1A7C0BC
:1011E00080E293E0A0E0B0E08093010290930202DD
:1011F000A0930302B09304021092E8031092E70355
:101200001092EA031092E90380918100887F809315
:1012100081008091DA0382FD6FC18E7F83C00E94BE
:101220008407C091E703D091E8032196D093E803A7
:10123000C093E7038091E5039091E60301969093B4
:10124000E6038093E5030091DD031091DE038090B7
:10125000E9039090EA03A12CB12C6C01CC0CDD1CAD
:10126000CC0CDD1C8FEFC81AD80AEE24D7FCE09412
:10127000FE2C2801612C712CAEEFBFEFA30192016F
:101280000E944728681979098A099B09A7019601D4
:101290000E949228020F131F10936F0300936E0396
:1012A000C301B201660F771F881F991F680D791D52
:1012B0008A1D9B1DA70196010E9492287093EA0344
:1012C0006093E9038091DF039091E003C817D90789
:1012D00048F08091E1039091E2039093E6038093BC
:1012E000E50323C18091E3039091E4038017910704
:1012F00008F402C11093EC030093EB0390936F0387
:1013000080936E031092EA031092E9039091DA033E
:101310008091DC03887F92FF08C084608093DC03A7
:10132000892F8B7F8093DA03E7C08360E3C00E943C
:1013300084074091ED035091EE034F5F5F4F509350
:10134000EE034093ED0383EC98E090936F0380935A
:101350006E0360E070E08091D6039091D703A09176
:10136000D803B091D903481759076A077B070CF4D3
:10137000C3C089E99DE190936F0380936E0310923F
:10138000E8031092E7031092EA031092E903109227
:10139000EE031092ED031092E6031092E5038091A4
:1013A000DA038F7D877F8093DA039091DC0382FFDD
:1013B00004C0987F9093DC039FC0892F887F816051
:1013C0008093DC038AE090E090938900809388000A
:1013D000809181008260809381008EC00E9484078A
:1013E0008091E7039091E80301969093E80380933E
:1013F000E7032091E3033091E40330936F032093DC
:101400006E032091DF033091E0038217930708F405
:1014100073C08AE20E942F1B892B09F46DC08BE2F6
:101420000E942F1B892B09F467C08CE20E942F1B9E
:10143000892B09F461C08DE20E942F1B892B09F0D2
:1014400064C05AC00E9484078091E7039091E8032A
:1014500001969093E8038093E703C091E503D09150
:10146000E6032196D093E603C093E5030091DD03E4
:101470001091DE038090E9039090EA03A12CB12C37
:101480006E01CC0CDD1CCC0CDD1C8FEFC81AD80A09
:10149000EE24D7FCE094FE2C2801612C712CAEEFD9
:1014A000BFEFA30192010E944728681979098A09B0
:1014B0009B09A70196010E949228200F311F3093AB
:1014C0006F0320936E03C301B201660F771F881F5D
:1014D000991F680D791D8A1D9B1DA70196010E9409
:1014E00092287093EA036093E903D7FD05C08091C9
:1014F000DC03887F8093DC0380916E0390916F03FF
:101500009093DE038093DD0315C08091E1039091F9
:10151000E2039093E6038093E5038091EB039091BF
:10152000EC0390936F0380936E038091DC03887FBC
:101530008260E0CFFF91EF91DF91CF91BF91AF91AA
:101540009F918F917F916F915F914F913F912F91DB
:101550001F910F91FF90EF90DF90CF90BF90AF90D1
:101560009F908F907F906F905F904F900F900BBEE9
:101570000F900FBE0F901F90189560E08AE20E94B6
:10158000C01A61E08AE20E94F81A60E08BE20E94D1
:10159000C01A61E08BE20E94F81A60E08CE20E94BF
:1015A000C01A61E08CE20E94F81A60E08DE20E94AD
:1015B000C01A61E08DE20E94F81A60E08EE20E949B
:1015C000C01A61E08EE20E94F81A60E08FE20E9489
:1015D000C01A61E08FE20E94F81A60E083E30E9483
:1015E000C01A61E083E30E94F81A60E081E30E9480
:1015F000C01A61E081E30E94F81A60E082E30E9471
:10160000C01A61E082E30E94F81A60E080E30E9461
:10161000C01A61E080E30E94F81A60E088E20E944C
:10162000C01A61E088E20E94F81A60E082E00E943D
:10163000C01A60E083E00E94C01A60E085E10E9469
:10164000C01A60E083E10E94C01A60E084E10E9459
:10165000C01A61E084E30E94C01A61E085E30E9441
:10166000C01A61E08EE10E94C01A61E08FE10E9421
:10167000C01A61E080E20E94C01A61E088E00E9426
:10168000C01A61E08AE00E94C01A61E089E00E940D
:10169000C01A61E084E30E94F81A61E085E30E94C9
:1016A000F81A61E08EE10E94F81A61E08FE10E9471
:1016B000F81A61E08AE00E94F81A61E089E00E946D
:1016C000F81A61E088E00C94F81A20917403211153
:1016D00042C020917503213009F4ECC02330F9F4A5
:1016E00028EC289FA001299F500D1124662757FD43
:1016F0006095762F8091AA039091AB03A091AC03E3
:10170000B091AD03840F951FA61FB71F8093AA0346
:101710009093AB03A093AC03B093AD030895243032
:1017200009F005C2AA2797FDA095BA2F4091A603FC
:101730005091A7036091A8037091A903480F591F06
:101740006A1F7B1F4093A6035093A7036093A803CF
:101750007093A9030895213009F051C020917503B9
:10176000213009F4A7C02330F9F428EC289FA00108
:10177000299F500D1124662757FD6095762F809183
:10178000AE039091AF03A091B003B091B103840F69
:10179000951FA61FB71F8093AE039093AF03A0932E
:1017A000B003B093B1030895243009F0C0C144E7F9
:1017B00052E0849F9001859F300D949F300D11243D
:1017C000C90160E971E00E945C28AB01662757FD02
:1017D0006095762F8091B2039091B303A091B403EA
:1017E000B091B503840F951FA61FB71F8093B20356
:1017F0009093B303A093B403B093B503089522303C
:1018000009F051C020917503213009F453C02330F1
:10181000F9F428EC289FA001299F500D1124662778
:1018200057FD6095762F8091B6039091B703A091F4
:10183000B803B091B903840F951FA61FB71F8093FB
:10184000B6039093B703A093B803B093B903089578
:10185000243009F06CC144E752E0849F9001859FD9
:10186000300D949F300D1124C90160E971E00E9490
:101870005C28AB01662757FD6095762F8091BA03EF
:101880009091BB03A091BC03B091BD03840F951F41
:10189000A61FB71F8093BA039093BB03A093BC030A
:1018A000B093BD030895233009F0A3C020917503C0
:1018B0002130F9F428EC289FA001299F500D112414
:1018C000662757FD6095762F809180039091810364
:1018D000A0918203B0918303840F951FA61FB71FA9
:1018E0008093800390938103A0938203B09383033A
:1018F00008952230F9F428EC289FA001299F500D6B
:101900001124662757FD6095762F8091BE03909134
:10191000BF03A091C003B091C103840F951FA61F00
:10192000B71F8093BE039093BF03A093C003B093EF
:10193000C1030895233069F544E752E0849F900184
:10194000859F300D949F300D1124C90160E971E02D
:101950000E945C2884E6869FA001879F500D112479
:10196000662757FD6095762F8091C2039091C3033F
:10197000A091C403B091C503840F951FA61FB71F84
:101980008093C2039093C303A093C403B093C50391
:101990000895243009F0CBC044E752E0849F9001C1
:1019A000859F300D949F300D1124C90160E971E0CD
:1019B0000E945C2884E6869FA001879F500D112419
:1019C000662757FD6095762F8091C6039091C703D7
:1019D000A091C803B091C903840F951FA61FB71F1C
:1019E0008093C6039093C703A093C803B093C90321
:1019F0000895243009F09BC02091750321111FC068
:101A00002AE0289FA001299F500D1124662757FD29
:101A10006095762F8091D2039091D303A091D40347
:101A2000B091D503840F951FA61FB71F8093D203D3
:101A30009093D303A093D403B093D503089521309A
:101A400069F544E752E0849F9001859F300D949F93
:101A5000300D1124C90160E971E00E945C2884E620
:101A6000869FA001879F500D1124662757FD609522
:101A7000762F8091CA039091CB03A091CC03B091B3
:101A8000CD03840F951FA61FB71F8093CA039093A1
:101A9000CB03A093CC03B093CD030895223069F516
:101AA00044E752E0849F9001859F300D949F300D54
:101AB0001124C90160E971E00E945C2884E6869FD8
:101AC000A001879F500D1124662757FD6095762F42
:101AD0008091CE039091CF03A091D003B091D10318
:101AE000840F951FA61FB71F8093CE039093CF033B
:101AF000A093D003B093D10308952330C1F4AA2753
:101B000097FDA095BA2F4091D6035091D7036091CD
:101B1000D8037091D903480F591F6A1F7B1F409348
:101B2000D6035093D7036093D8037093D9030895D5
:101B3000CF93DF9383E10E942F1BEC0184E10E948D
:101B40002F1B409188035091890360918A03709103
:101B50008B03C817D90779F44150510961097109FC
:101B6000409388035093890360938A0370938B0397
:101B70008FEF9FEF0EC04F5F5F4F6F4F7F4F4093D0
:101B800088035093890360938A0370938B0381E0E9
:101B900090E0DF91CF910C94650B2F923F924F9282
:101BA0005F926F927F928F929F92AF92BF92CF92ED
:101BB000DF92EF92FF920F931F931C0180917403A9
:101BC000811126C080917503813009F478C083307B
:101BD00071F4C101AA2797FDA095BA2F8093AA039B
:101BE0009093AB03A093AC03B093AD03EBC08430F0
:101BF00009F0E8C0C101AA2797FDA095BA2F8093EC
:101C0000A6039093A703A093A803B093A903DAC0F7
:101C1000813031F580917503813009F450C08330F3
:101C200071F4C101AA2797FDA095BA2F8093AE0346
:101C30009093AF03A093B003B093B103C3C08430BB
:101C400009F0C0C0C101AA2797FDA095BA2F8093C3
:101C5000B2039093B303A093B403B093B503B2C09F
:101C6000823031F580917503813009F428C08330CA
:101C700071F4C101AA2797FDA095BA2F8093B603EE
:101C80009093B703A093B803B093B9039BC084307B
:101C900009F098C0C101AA2797FDA095BA2F80939B
:101CA000BA039093BB03A093BC03B093BD038AC057
:101CB000833009F043C080917503813071F4C10114
:101CC000AA2797FDA095BA2F809380039093810354
:101CD000A0938203B093830375C0823071F4C10175
:101CE000AA2797FDA095BA2F8093BE039093BF03B8
:101CF000A093C003B093C10365C0833071F4210188
:101D0000662457FC6094762C4092C2035092C30321
:101D10006092C4037092C50355C0843009F052C06C
:101D20004101AA2497FCA094BA2C8092C6039092F9
:101D3000C703A092C803B092C90344C0843009F01D
:101D400041C08091750381110EC06101EE24D7FC62
:101D5000E094FE2CC092D203D092D303E092D4033D
:101D6000F092D5032FC0813071F48101222717FD35
:101D70002095322F0093CA031093CB032093CC03FA
:101D80003093CD031FC0823071F4A101662757FD47
:101D90006095762F4093CE035093CF036093D0038A
:101DA0007093D1030FC0833069F4C101AA2797FD56
:101DB000A095BA2F8093D6039093D703A093D8030E
:101DC000B093D9031F910F91FF90EF90DF90CF90C8
:101DD000BF90AF909F908F907F906F905F904F904B
:101DE0003F902F90089581EE90E0A0E0B0E08093C6
:101DF000A6039093A703A093A803B093A9031092FE
:101E0000AA031092AB031092AC031092AD03109290
:101E1000AE031092AF031092B0031092B103109270
:101E2000B2031092B3031092B4031092B503109250
:101E3000B6031092B7031092B8031092B903109230
:101E4000BA031092BB031092BC031092BD0388EC3E
:101E500090E0A0E0B0E08093BE039093BF03A09316
:101E6000C003B093C10340E757E160E070E04093E6
:101E7000C2035093C3036093C4037093C50388EEF9
:101E800093E0A0E0B0E08093C6039093C703A093D3
:101E9000C803B093C9034093CA035093CB03609324
:101EA000CC037093CD038093CE039093CF03A09384
:101EB000D003B093D10382E090E0A0E0B0E0809343
:101EC000D2039093D303A093D403B093D50380E7B8
:101ED00090E0A0E0B0E08093D6039093D703A09366
:101EE000D803B093D90308950F931F93CF93DF9333
:101EF0000E94BD0A43E050E068E97DE083E00E9473
:101F00003D1741E050E068E271E180E00E943D173A
:101F100041E050E060E470E181E00E943D1741E063
:101F200050E069E272E082E00E943D1760E088E0E4
:101F300094E00E945A1D2AE73DE14FEF64EE70E005
:101F400088E094E00E94742542E063E088E094E039
:101F50000E94D82465E173E088E094E00E94A31B0E
:101F600060E088E094E00E941E2545E063E088E0A0
:101F700094E00E94D82465E273E088E094E00E9437
:101F8000A31B60E088E094E00E941E2560ED77E0EE
:101F900080E090E00E94C2190E949E0888E20E94A0
:101FA0002F1B892B39F560E085E30E94F81A43E086
:101FB00060E088E094E00E94D82465E373E088E064
:101FC00094E00E94A31B60E088E094E00E941E253C
:101FD00088E20E942F1B892BD9F368EE73E080E022
:101FE00090E00E94C21961E085E30E94F81A0E9405
:101FF000F30E10C0C6EAD3E060E070E08B010F5F23
:102000001F4F8EE194E00E9407268993B8010433A4
:102010001105A1F70E942A020E94F8040FEF2FE792
:1020200042E360E088E094E00E94701D2FE746E301
:1020300060E088E094E00E94701D21E340E063E0EE
:1020400088E094E00E94651DDF91CF911F910F9170
:1020500008958091E1039091E2039093E6038093C9
:10206000E5038091EB039091EC0390936F038093D1
:102070006E03ECEDF3E08081887F826080830895B9
:1020800083E00E942F1B80938C039091000240916B
:10209000A2035091A3036091A4037091A503209122
:1020A000A0033091A1038917A9F04F5F5F4F6F4FD5
:1020B0007F4F4093A2035093A3036093A4037093B4
:1020C000A5032F5F3F4F3093A1032093A0031092ED
:1020D0009F0315C041505109610971094093A20342
:1020E0005093A3036093A4037093A5032150310977
:1020F0003093A1032093A00381E080939F038091FC
:10210000990390919A03A0919B03B0919C0301962F
:10211000A11DB11D8093990390939A03A0939B03F3
:10212000B0939C038091A0039091A10380349640CA
:1021300024F01092A1031092A0038091A00390912B
:10214000A10397FF06C08FE396E09093A1038093CD
:10215000A00385E10E942F1B892B39F09091DA03AF
:10216000892F8472843009F458C08091DC03877011
:10217000843009F06CC08091010290910202A0911C
:102180000302B091040240917C0350917D03609161
:102190007E0370917F03841B950BA60BB70B809376
:1021A000010290930202A0930302B0930402B7FFCE
:1021B0001FC00E9484078091E7039091E803019675
:1021C0009093E8038093E7038091010290910202CB
:1021D000A0910302B0910402805C994FAF4FBF4FB2
:1021E0008093010290930202A0930302B093040231
:1021F0008091E3039091E40390936F0380936E03C7
:102200002091E7033091E8038091DF039091E00390
:1022100028173907E0F00C9429108091DC03887F9F
:1022200081608093DC031092E6031092E503892F0E
:1022300081608093DA038AE090E090938900809334
:102240008800809181008260809381008ECF089504
:1022500050918C03409100028091A2039091A303BE
:10226000A091A403B091A5032091A0033091A103F4
:102270005417A1F00196A11DB11D8093A203909364
:10228000A303A093A403B093A5032F5F3F4F309304
:10229000A1032093A00310929F0314C00197A109EA
:1022A000B1098093A2039093A303A093A403B093D6
:1022B000A503215031093093A1032093A00381E0AD
:1022C00080939F038091990390919A03A0919B031F
:1022D000B0919C030196A11DB11D80939903909329
:1022E0009A03A0939B03B0939C038091A0039091C9
:1022F000A1038034964024F01092A1031092A00311
:102300008091A0039091A10397FF06C08FE396E010
:102310009093A1038093A00385E10E942F1B892B3A
:1023200039F09091DA03892F8472843009F45EC009
:102330008091DC038770843009F052C080910102E3
:1023400090910202A0910302B091040240917C039B
:1023500050917D0360917E0370917F03841B950BE8
:10236000A60BB70B8093010290930202A093030285
:10237000B0930402B7FF1FC00E9484078091E70357
:102380009091E80301969093E8038093E70380918E
:10239000010290910202A0910302B0910402805CBC
:1023A000994FAF4FBF4F8093010290930202A093C9
:1023B0000302B09304028091E3039091E4039093AD
:1023C0006F0380936E032091E7033091E8038091BF
:1023D000DF039091E0032817390710F00E942910BD
:1023E00082E00E942F1B8093000208958091DC03FD
:1023F000887F81608093DC031092E6031092E503EE
:10240000892F81608093DA038AE090E090938900BD
:10241000809388008091810082608093810088CFC2
:10242000CF92DF92EF92FF92CF93DF930E94370516
:1024300082E30E942F1B892B29F48091DA03817497
:1024400039F028C080E30E942F1B892BB1F322C0F2
:1024500080917703882309F48AC31CC08091740398
:102460008F5F8093740380E30E942F1B892B29F4D4
:10247000809174038150809374038091740385303C
:1024800010F0109274030E942A028091DA03806493
:102490008093DA0383E30E942F1B892B31F4809110
:1024A000DA03817409F46CC322C081E30E942F1BFC
:1024B000892BA9F31CC0809175038F5F80937503EE
:1024C00083E30E942F1B892B29F48091750381508F
:1024D0008093750380917503853010F01092750319
:1024E0000E94F8048091DA0380648093DA0388E222
:1024F0000E942F1B892B49F580917403843029F5A4
:1025000080917503843009F58091DA0386FF3FC31B
:102510001CC049917B018FEFE81AF80A8EE194E024
:102520000E940A26B7016433710599F78091DA0396
:1025300080648093DA0368EE73E080E090E00E94AC
:10254000C21961E085E30E94F81A88E20E942F1BFD
:10255000892B21F48091DA0386FF22C38EE20E9448
:102560002F1B892B29F48091DA03817409F422C38B
:102570008FE20E942F1B892B49F4809174038430D1
:1025800029F08091DA03817409F422C38091DA037F
:1025900080FF02C060E001C061E08FE10E94F81A94
:1025A0008091770381112CC080917403843041F1B4
:1025B0008091DA0380FD06C08AE20E942F1B892BDE
:1025C00009F415C38091DA0380FD06C08BE20E94F6
:1025D0002F1B892B09F414C38091DA0380FD06C0F8
:1025E0008CE20E942F1B892B09F413C38091DA031C
:1025F00080FD06C08DE20E942F1B892B09F412C3B7
:1026000080917703813009F0AEC08091740381110D
:10261000AAC08091DA0380FF0FC08BE20E942F1BBB
:10262000892B29F48091DA0386FF05C305C08CE26B
:102630000E942F1B892BB1F38091DA0380FD25C006
:102640008DE20E942F1B892B01F58091DA0386FD14
:102650001CC08091780390917903A0917A03B09186
:102660007B034091800350918103609182037091BC
:1026700083036C017D01C41AD50AE60AF70AC41661
:10268000D506E606F70609F0DFC28091DA0380FD81
:102690000BC08AE20E942F1B892B31F48091DA0350
:1026A000982F947409F4E0C22091DA0320FD47C00A
:1026B0008091780390917903A0917A03B0917B0384
:1026C0004091AA035091AB036091AC037091AD03AC
:1026D000840F951FA61FB71F40918003509181035F
:1026E0006091820370918303481759076A077B073B
:1026F00031F527FF24C080917603813001F5609188
:10270000D2037091D3038091D4039091D5030E949A
:10271000C2196091CA037091CB03809178039091A4
:1027200079032091800330918103821B930B0E94D7
:10273000CF078091DA038B7F8F778093DA0380E372
:102740000E942F1B892B29F48091DA03817409F4EC
:10275000AAC282E30E942F1B892B29F48091DA03FD
:10276000817409F4ACC280917703813009F0B3C061
:1027700080917403813009F0AEC08091DA0380FF4C
:102780000FC08BE20E942F1B892B29F48091DA0362
:1027900086FFA2C205C08CE20E942F1B892BB1F3D9
:1027A0008091DA0380FD25C08DE20E942F1B892BCA
:1027B00001F58091DA0386FD1CC080917803909129
:1027C0007903A0917A03B0917B03409180035091EB
:1027D000810360918203709183036C017D01C41AAF
:1027E000D50AE60AF70AC416D506E606F70609F082
:1027F0007CC28091DA0380FD0BC08AE20E942F1B0D
:10280000892B31F48091DA03982F907C09F47DC2F2
:1028100080917603813009F04AC08091DA03982FC5
:102820009178903809F043C09091DB0390FD1EC071
:1028300080FD1CC06091D2037091D3038091D403BA
:102840009091D5030E94C2196091B2037091B303B5
:102850008091AE039091AF039195819591090E946B
:10286000CF078091DB0381608093DB038091DB03E2
:1028700080FF1DC08091DA0380FD19C06091D203F2
:102880007091D3038091D4039091D5030E94C21913
:102890006091B2037091B3038091AE039091AF0346
:1028A0000E94CF078091DB038E7F8093DB0380E360
:1028B0000E942F1B892B29F48091DA03817409F47B
:1028C00048C282E30E942F1B892B29F48091DA03EE
:1028D000817409F449C280917703813089F5809130
:1028E0007403823069F58091DA0380FF0FC08BE2B8
:1028F0000E942F1B892B29F48091DA0386FF40C2A6
:1029000005C08CE20E942F1B892BB1F38091DA0362
:1029100080FD09C08AE20E942F1B892B21F480913F
:10292000DA0386FF35C28091DA0380FD09C08DE2AB
:102930000E942F1B892B21F48091DA0386FF38C275
:10294000809177038130C1F5809174038330A1F5C4
:102950008091DA0380FD09C08AE20E942F1B892B37
:1029600021F48091DA0386FF36C28091DA0380FD7C
:1029700009C08BE20E942F1B892B21F48091DA037E
:1029800086FF39C28091DA0380FD09C08CE20E9483
:102990002F1B892B21F48091DA0386FF3FC280919F
:1029A000DA0380FD09C08DE20E942F1B892B21F4E0
:1029B0008091DA0386FF42C20E9486196B017C0176
:1029C000C0928D03D0928E03E0928F03F092900319
:1029D0008091910390919203A0919303B0919403FD
:1029E000C816D906EA06FB060CF478C020919903B4
:1029F00030919A0340919B0350919C03209395033F
:102A00003093960340939703509398031092990341
:102A100010929A0310929B0310929C03D701C60157
:102A200088519C4FAF4FBF4F809391039093920377
:102A3000A0939303B0939403ACE3B0E00E943928D1
:102A400020E436E040E050E00E94922830939E035C
:102A500020939D038091DA0380FD40C0C090A603BF
:102A6000D090A703E090A803F090A903CC0CDD1C44
:102A7000EE1CFF1CC0927C03D0927D03E0927E038B
:102A8000F0927F0344275527A4E7B2E00E9439283B
:102A90009B01AC01C701B6010E944C2820EC3DE52A
:102AA00040E050E00E9492282093840330938503F5
:102AB0004093860350938703CA01B9010E944C28B2
:102AC00024EA32E341E050E00E9492282093700310
:102AD00030937103409372035093730388E20E9412
:102AE0002F1B892B09F4C2C18AE20E942F1B892B5C
:102AF00009F4BCC18BE20E942F1B892B09F4B6C1DB
:102B00008CE20E942F1B892B09F4B0C18DE20E9438
:102B10002F1B892B09F4AAC18EE20E942F1B892B3F
:102B200009F4A4C18FE20E942F1B892B09F49EC1D6
:102B300080E30E942F1B892B09F498C182E30E9435
:102B40002F1B892B09F492C183E30E942F1B892B31
:102B500009F48CC181E30E942F1B892B09F486C1E3
:102B600088E20E942F1B892B09F07BC17FC1109244
:102B7000760382E30E942F1B892B09F46FCC73CC60
:102B800081E30E942F1B892B09F495CC99CC60E03E
:102B900085E30E94F81A60E070E0C6EAD3E0B9CCA1
:102BA00080E090E00E94CD0D8091DA0380648093F4
:102BB000DA03D4CC109277030E942A0261E084E306
:102BC0000E94F81A8091DA0380648093DA03D0CCF3
:102BD00081E0809377030E942A0260E084E30E94F0
:102BE000F81A8091DA0380648093DA03CFCC609185
:102BF000CE037091CF0384E690E00E94CF07E2CC31
:102C00006091CE037091CF038CE99FEF0E94CF07B4
:102C1000E3CC6091CA037091CB0388EE93E00E94ED
:102C2000CF07E4CC6091CA037091CB0388E19CEF9D
:102C30000E94CF07E5CC0E9429108091DA038064BE
:102C40008F778093DA03F8CC2091CA033091CB03BD
:102C5000841B950BB9010E94CF078091DA038F770F
:102C600080648093DA0311CD846880648093DA03F2
:102C70008091800390918103A0918203B09183039E
:102C80008093780390937903A0937A03B0937B03A6
:102C900060918403709185038091AA039091AB03A6
:102CA0000E94CF0701CD109276030E942A028091E4
:102CB000DA0380648B7F8F778093DA034ACD81E0DB
:102CC000809376030E942A028091DA0380648B7FCE
:102CD0008F778093DA0347CD0E9429108091DA0321
:102CE00080648F778093DA035BCD2091CA033091A3
:102CF000CB03841B950BB9010E94CF078091DA03A7
:102D00008F7780648093DA0374CD806880648093C9
:102D1000DA038091800390918103A0918203B091A6
:102D200083038093780390937903A0937A03B093FD
:102D30007B036091B2037091B3038091AE039091D5
:102D4000AF030E94CF078091DB038E7F8093DB036C
:102D50005FCD109276030E942A028091DA0380648C
:102D60008F778093DA03ADCD81E0809376030E9464
:102D70002A028091DA0380648F778093DA03ABCDE7
:102D80000E9429108091DA0380648093DA03BECD1B
:102D90006091BA037091BB038091B6039091B70321
:102DA0000E94CF078091DA0380648093DA03BBCD61
:102DB0006091BA037091BB038091B6039091B70301
:102DC0009195819591090E94CF078091DA038064E3
:102DD0008093DA03B5CD6091C6037091C7038091EB
:102DE000BE039091BF030E94CF078091DA038064F5
:102DF0008093DA03BACD6091C6037091C7038091C6
:102E0000BE039091BF039195819591090E94CF07D0
:102E10008091DA0380648093DA03B4CD6091C203B9
:102E20007091C3038091BE039091BF030E94CF07AE
:102E30008091DA0380648093DA03B1CD6091C2039C
:102E40007091C3038091BE039091BF0391958195CA
:102E500091090E94CF078091DA0380648093DA039E
:102E6000ABCD8091DA038F7B8093DA03DF91CF9132
:102E7000FF90EF90DF90CF900895883008F073C0F6
:102E8000E82FF0E0EE0FFF1FE151FC4F71836083EC
:102E9000843011F130F4823059F090F48130B1F582
:102EA0003DC0863009F446C020F1873079F54FC027
:102EB000809169008C7F842B80936900E89A089543
:102EC00080916900440F551F440F551F837F842B49
:102ED00080936900E99A08958091690074E0440F35
:102EE000551F7A95E1F78F7C842B80936900EA9ACD
:102EF00008958091690066E0440F551F6A95E1F7D7
:102F00008F73842B80936900EB9A089580916A00F7
:102F10008C7F842B80936A00EC9A089580916A00DC
:102F2000440F551F440F551F837F842B80936A00E5
:102F3000ED9A089580916A0024E0440F551F2A9568
:102F4000E1F78F7C842B80936A00EE9A089580913C
:102F50006A0096E0440F551F9A95E1F78F73842B12
:102F600080936A00EF9A08951F920F920FB60F9206
:102F700011240BB60F922F933F934F935F936F9350
:102F80007F938F939F93AF93BF93EF93FF93809122
:102F9000F3039091F403892B29F0E091F303F0916E
:102FA000F4031995FF91EF91BF91AF919F918F918C
:102FB0007F916F915F914F913F912F910F900BBE39
:102FC0000F900FBE0F901F9018951F920F920FB683
:102FD0000F9211240BB60F922F933F934F935F9351
:102FE0006F937F938F939F93AF93BF93EF93FF93D1
:102FF0008091F5039091F603892B29F0E091F50378
:10300000F091F6031995FF91EF91BF91AF919F91C8
:103010008F917F916F915F914F913F912F910F9081
:103020000BBE0F900FBE0F901F9018951F920F921E
:103030000FB60F9211240BB60F922F933F934F931D
:103040005F936F937F938F939F93AF93BF93EF9310
:10305000FF938091F7039091F803892B29F0E09179
:10306000F703F091F8031995FF91EF91BF91AF919C
:103070009F918F917F916F915F914F913F912F9190
:103080000F900BBE0F900FBE0F901F9018951F92C0
:103090000F920FB60F9211240BB60F922F933F93FE
:1030A0004F935F936F937F938F939F93AF93BF9350
:1030B000EF93FF938091F9039091FA03892B29F004
:1030C000E091F903F091FA031995FF91EF91BF9107
:1030D000AF919F918F917F916F915F914F913F91B0
:1030E0002F910F900BBE0F900FBE0F901F90189551
:1030F0001F920F920FB60F9211240BB60F922F93BF
:103100003F934F935F936F937F938F939F93AF936F
:10311000BF93EF93FF938091EF039091F003892B7E
:1031200029F0E091EF03F091F0031995FF91EF91F1
:10313000BF91AF919F918F917F916F915F914F91CF
:103140003F912F910F900BBE0F900FBE0F901F90CD
:1031500018951F920F920FB60F9211240BB60F9273
:103160002F933F934F935F936F937F938F939F938F
:10317000AF93BF93EF93FF938091F1039091F2038C
:10318000892B29F0E091F103F091F2031995FF9159
:10319000EF91BF91AF919F918F917F916F915F91CF
:1031A0004F913F912F910F900BBE0F900FBE0F903C
:1031B0001F9018951F920F920FB60F9211240BB605
:1031C0000F922F933F934F935F936F937F938F93C0
:1031D0009F93AF93BF93EF93FF938091FB039091E5
:1031E000FC03892B29F0E091FB03F091FC03199576
:1031F000FF91EF91BF91AF919F918F917F916F91CF
:103200005F914F913F912F910F900BBE0F900FBE8A
:103210000F901F9018951F920F920FB60F921124C6
:103220000BB60F922F933F934F935F936F937F93C0
:103230008F939F93AF93BF93EF93FF938091FD0381
:103240009091FE03892B29F0E091FD03F091FE039C
:103250001995FF91EF91BF91AF919F918F917F91C0
:103260006F915F914F913F912F910F900BBE0F90F7
:103270000FBE0F901F9018951F920F920FB60F92CE
:1032800011242F933F938F939F93AF93BF9380917C
:10329000FF0390910004A0910104B09102043091C9
:1032A0000704232F2D5F2D3720F40196A11DB11D9A
:1032B00005C0232F2A570296A11DB11D2093070494
:1032C0008093FF0390930004A0930104B093020441
:1032D0008091030490910404A0910504B091060428
:1032E0000196A11DB11D8093030490930404A09343
:1032F0000504B0930604BF91AF919F918F913F91C8
:103300002F910F900FBE0F901F9018950F931F9342
:103310008FB7F8940091FF031091000420910104ED
:10332000309102048FBFB801C9011F910F91089518
:103330000F931F939FB7F894009103041091040416
:10334000209105043091060486B5A89B06C08F3FE6
:1033500021F00F5F1F4F2F4F3F4F9FBF322F212F65
:10336000102F0027080F111D211D311D42E0000FF5
:10337000111F221F331F4A95D1F7B801C9011F91B0
:103380000F910895CF92DF92EF92FF92CF93DF9348
:103390006B017C010E949819EB010EC00E949819E4
:1033A0006C1B7D0B683E734038F081E0C81AD10871
:1033B000E108F108C851DC4FC114D104E104F10463
:1033C00069F7DF91CF91FF90EF90DF90CF90089554
:1033D000019739F0880F991F880F991F029701975D
:1033E000F1F70895789484B5826084BD84B58160D6
:1033F00084BD85B5826085BD85B5816085BDEEE6FD
:10340000F0E0808181608083E1E8F0E010828081DB
:1034100082608083808181608083E0E8F0E0808149
:1034200081608083E1EBF0E0808184608083E0EB69
:10343000F0E0808181608083E1E9F0E0808182605A
:103440008083808181608083E0E9F0E08081816019
:103450008083E1EAF0E08081826080838081816006
:103460008083E0EAF0E0808181608083E1E2F1E046
:10347000808182608083808181608083E0E2F1E0EE
:10348000808181608083EAE7F0E0808184608083CE
:103490008081826080838081816080838081806878
:1034A00080831092C1000895893009F443C088F4E4
:1034B000843029F138F4823059F1E8F4813009F090
:1034C0005EC023C0873061F188F5863009F057C0AF
:1034D00023C08D3009F440C020F48B30A9F1C0F531
:1034E0002DC0803109F442C0813109F443C08F30CE
:1034F00009F045C037C0809180008F7703C080916C
:1035000080008F7D80938000089584B58F7702C0FE
:1035100084B58F7D84BD08958091B0008F7703C0FE
:103520008091B0008F7D8093B000089580919000CD
:103530008F7707C0809190008F7D03C080919000AD
:10354000877F8093900008958091A0008F7707C0B7
:103550008091A0008F7D03C08091A000877F809321
:10356000A0000895809120018F7707C080912001ED
:103570008F7D03C080912001877F80932001089573
:10358000CF93DF9390E0FC01E05FFC4F4491FC019E
:10359000EA5AFC4F8491882341F190E0880F991FEB
:1035A000FC01E053FC4F25913491D9018A549C4F82
:1035B000FC0185919491C82FD92F9FB7F8948C91D5
:1035C000611106C0409584238C938881842308C0B0
:1035D000623041F4242F209582238C938881842BA0
:1035E000888302C0842B8C939FBFDF91CF91089575
:1035F0000F931F93CF93DF931F92CDB7DEB7282F82
:1036000030E0F901E653FD4F8491F901E05FFC4F92
:103610001491F901EA5AFC4F04910023D1F0882358
:1036200021F069830E94541A6981E02FF0E0EE0FC7
:10363000FF1FEA54FC4F85919491DC019FB7F894E9
:103640008C91611103C01095812301C0812B8C9353
:103650009FBF0F90DF91CF911F910F910895CF934E
:10366000DF93282F30E0F901E653FD4F8491F901F3
:10367000E05FFC4FD491F901EA5AFC4FC491CC238E
:1036800089F081110E94541AEC2FF0E0EE0FFF1F19
:10369000E456FC4F85919491DC018C918D2321E0BF
:1036A00030E011F420E030E0C901DF91CF910895BE
:1036B0000E94F2190E94740FC0E0D0E00E94101224
:1036C0002097E1F30E940000F9CFCF92DF92EF92B2
:1036D000FF920F931F93CF93DF936C01EB017A015D
:1036E000E60EF71E00E010E00BC06991D601ED91E7
:1036F000FC910190F081E02DC6011995080F191F6A
:10370000CE15DF0591F7C801DF91CF911F910F9181
:10371000FF90EF90DF90CF9008956115710581F0D3
:10372000DB010D900020E9F7AD0141505109461B26
:10373000570BDC01ED91FC910280F381E02D19948F
:1037400080E090E008950C948D1BDC01ED91FC91DC
:103750000190F081E02D19944F925F926F927F92C9
:103760009F92AF92BF92CF92DF92EF92FF920F9310
:103770001F93CF93DF93CDB7DEB7A1970FB6F89421
:10378000DEBF0FBECDBF5C016A017B01922E19A284
:1037900081E0821710F08AE0982E8E010F5D1F4F96
:1037A000492C512C612C712CC701B601A301920147
:1037B0000E9470288C2D929E8019112401501109AD
:1037C0008A3010F4805D01C0895CF8018083690152
:1037D0007A01C114D104E104F10431F7B801C50143
:1037E0000E948D1BA1960FB6F894DEBF0FBECDBF11
:1037F000DF91CF911F910F91FF90EF90DF90CF90CD
:10380000BF90AF909F907F906F905F904F90089582
:10381000CF92DF92EF92FF920F931F93CF93DF939C
:10382000EC016A017B012115310579F4E881F98108
:103830000190F081E02D642FDF91CF911F910F91C6
:10384000FF90EF90DF90CF9019942A30310519F452
:1038500077FD0EC02AE0B701A601CE01DF91CF911E
:103860001F910F91FF90EF90DF90CF900C94AC1BC5
:103870006DE20E94A51B8C0144275527BA014C1903
:103880005D096E097F092AE0CE010E94AC1B080F7A
:10389000191FC801DF91CF911F910F91FF90EF90F9
:1038A000DF90CF9008957F928F929F92AF92BF92B8
:1038B000CF92DF92EF92FF920F931F93CF93DF93FC
:1038C000EC016A017B01122F9A01AB01C701B6011D
:1038D0000E942928882319F069E473E032C0460168
:1038E0005701E894B7F82FEF3FEF4FE75FE7C501C7
:1038F000B4010E94292881110DC02FEF3FEF4FE73F
:103900005FE7C501B4010E94732618161CF46DE42C
:1039100073E017C02FEF3FEF4FE75FE4C701B60139
:103920000E94C22718160CF40AC02FEF3FEF4FE792
:103930005FECC701B6010E94732687FF12C061E5E4
:1039400073E0CE01DF91CF911F910F91FF90EF9027
:10395000DF90CF90BF90AF909F908F907F900C940E
:103960008D1B20E030E0A901C701B6010E9473263B
:1039700087FF0AC06DE2CE010E94A51B5C01F7FA29
:10398000F094F7F8F09402C0A12CB12C00E060E0B4
:1039900070E080E09FE307C020E030E040E251E4C7
:1039A0000E9477260F5F0113F7CF262F372F482F5E
:1039B000592FC701B6010E940F26762E872E982E0A
:1039C000C92E0E94E426D62EE72EF82E092F0E943B
:1039D00010279B01AC01672D782D892D9C2D0E940D
:1039E0000E26C62E972E882E792E2AE04D2D5E2D7E
:1039F0006F2D702FCE010E94AC1B7C01EA0CFB1CCA
:103A00001123B9F16BE672E0CE010E948D1BE80E26
:103A1000F91E2FC020E030E040E251E46C2D792DFA
:103A2000882D972D0E94C627762E072F6C019D2D7D
:103A30000E94DF264B01AA2497FCA094BA2C2AE00E
:103A400030E0B501A401CE010E94081CE80EF91E69
:103A5000C501B4010E9412279B01AC01672D702F94
:103A60008C2D9D2D0E940E26C62E972E882E792EE7
:103A700011501111CFCFC701DF91CF911F910F913D
:103A8000FF90EF90DF90CF90BF90AF909F908F907E
:103A90007F9008950C94531CCF93DF93EC010E9408
:103AA000F01F89E593E09983888310921B04DF91CE
:103AB000CF9108950C94971FEF920F93040F260F48
:103AC0000E94F61E0F91EF900895EF920F93240F2E
:103AD000E02E022F262F0E94F61E0F91EF900895E0
:103AE000EF920F93260FE02E042F0E94F61E0F91E7
:103AF000EF900895FC018491089588E094E00C947F
:103B00004C1D80E090E00895FC011382128221E6B2
:103B100033E0318320830895613019F44498439A47
:103B20000895449A439808950E948C1D11B88FEF10
:103B300082B94198429A409AC89500C080B1409895
:103B400008950E948C1D11B84198429A409AC895D8
:103B500000C00799FECF40980895609117046295C0
:103B60006695669563700E94A11D419A429A00C0B5
:103B7000409AC89500C080B140980895CF93C62F51
:103B8000642F0E94A11D419842988FEF81B9C2B95C
:103B900000C0409AC895C89500004098CF910895FC
:103BA0000F931F93CF93DF93EC01162F809117048F
:103BB000681304C080911804481749F117FD27C005
:103BC000403428F51093170440931804012F0295F0
:103BD000069506950370642F669566956695E02FA9
:103BE000F0E0E75EFB4F8081681731F06083686B1F
:103BF000402FCE010E94BE1D612F6F736064402F65
:103C0000CE01DF91CF911F910F910C94BE1DDF91DA
:103C1000CF911F910F910895EF92FF921F93CF9331
:103C2000DF931F92CDB7DEB77C016091170467FD6B
:103C300015C069830E94AD1DC7010E94AD1D182FDC
:103C400080911B046981811110958FEF8093170477
:103C500040911804C7010E94D01D01C010E0812FBF
:103C60000F90DF91CF911F91FF90EF9008958F9269
:103C70009F92BF92CF92DF92EF92FF920F931F938A
:103C8000CF93DF931F92CDB7DEB74C01062FD090B4
:103C90001704D7FC9EC0D294D694D69483E0D82241
:103CA00030911804377009F45FC0C40139830E9451
:103CB0000C1EC82E6D2DC4010E94A11D419A429870
:103CC0008FEF81B900C0409A10E03981E32EF12CCA
:103CD000C80102C0880F991F3A95E2F79C012C2970
:103CE00080911B048111209522B9C895C8950000C8
:103CF0004098C09018042C2D30E0285F3F4F287F5B
:103D0000203431050CF02BC04C2D485F487F60916A
:103D10001704C4010E94D01DC4010E940C1EB82EBD
:103D20006D2DC4010E94A11D419A42988FEF81B967
:103D300000C0409A28E030E02E193F09F80102C087
:103D4000F595E7952A95E2F79F012B2980911B04B1
:103D50008111209522B9C895C895000040986091BE
:103D600017046F5F4C2D26C06D2DC4010E94A11D4C
:103D7000419A42988FEF81B980911B04811100957F
:103D800000C0409A02B9C895C8950000409860915B
:103D900017046F5F60931704962F929596959695EA
:103DA00093709D15B1F067FD14C09FEF90931704B9
:103DB00040911804C4010F90DF91CF911F910F9192
:103DC000FF90EF90DF90CF90BF909F908F900C94DA
:103DD000D01D0F90DF91CF911F910F91FF90EF9029
:103DE000DF90CF90BF909F908F9008957F928F9299
:103DF0009F92AF92BF92CF92DF92EF92FF920F937A
:103E00001F93CF93DF93EC01D62E81E0C82EC41A06
:103E1000C00EF82EF61AF20E542F5770B42EB51AA3
:103E20000C2D10E088E090E09C01251B3109021761
:103E3000130764F49C01201B310B8FEF90E002C04C
:103E4000959587952A95E2F7AC2C04C098E0A92EA9
:103E5000A51A8FEF882E01C0880C5A95EAF74B2DD2
:103E60006D2DCE010E94D01D912C782C70940EC027
:103E7000CE010E940C1E9FEF682FE91202C0682934
:103E800001C06721CE010E94371E93949F10F0CF8E
:103E9000AB1810C088E0B80E4B2D6D2DCE010E94DE
:103EA000D01D912C05C06E2DCE010E94371E93941B
:103EB0009F10F9CF4A2D4B0D842F90E09C01295F74
:103EC0003F4F2017310734F34C1518F5081B190B19
:103ED0008FEF90E001C0880F0A95EAF7082FC82EEF
:103EE000C0944B2D485F6D2DCE010E94D01D10E077
:103EF0000EC0CE010E940C1E9FEF682FE91202C077
:103F00006C2901C06023CE010E94371E1F5F1F1164
:103F1000F0CFDF91CF911F910F91FF90EF90DF9045
:103F2000CF90BF90AF909F908F907F900895EF9229
:103F3000FF920F931F93CF93DF93EC01399A3A9A34
:103F4000389A40983C9A44983B9A439841984298B2
:103F50008FEF809317048093180460931B0462E32F
:103F600070E080E090E00E94C21909E114E0F12CB9
:103F7000EE24EA946F2DCE010E94941D84FD23C08F
:103F800087FD24C0F801E1928F014F2D6FE3CE0130
:103F90000E94BE1D4F2D60ECCE010E94BE1DF39409
:103FA000F2E0FF12E7CFE12C0FE32FE740E060E003
:103FB000CE010E94F61E40E060E0CE010E94D01DBE
:103FC00020E030E005C022E030E002C021E030E037
:103FD000C901DF91CF911F910F91FF90EF9008954C
:103FE000CF93DF93EC010E94841D89E693E09983CF
:103FF00088831F8218868FE789878FE38A871B86CD
:104000001C861D861E86DF91CF9108952F923F92C8
:104010004F925F926F927F928F929F92AF92BF92D8
:10402000CF92DF92EF92FF920F931F93CF93DF9384
:104030001F92CDB7DEB7182FF92EB22EEE2DF0E07D
:10404000E40FF11D802F90E08E179F07C4F0842F9E
:104050008770E1E0F0E0082E01C0EE0F0A94EAF765
:104060009E2E9A94D62E98EF892E8422AE2CA40EE2
:1040700028EF722E7A2022242394312CA2C0EC2C1B
:10408000812F9F2D0E94F61E9FC0482D6D2D812FE0
:104090009F2D0E94D01D812F9F2D0E940C1E682EE7
:1040A00069205A2C472D6D2D812F9F2D0E94D01DE8
:1040B000812F9F2D0E940C1E482E3AC0E42DF0E067
:1040C000852D877002C0F595E7958A95E2F7E0FFA8
:1040D00009C0422F4770C10102C0880F991F4A953D
:1040E000E2F7682A5394852D877089F49FE395152C
:1040F00070F0452D487F6D2D812F9F2D29830E94C3
:10410000D01D812F9F2D0E940C1E482E2981822FA9
:104110008770873069F4422F487F6D2D812F9F2D46
:104120000E94D01D662D812F9F2D0E94371E612C6D
:10413000252D2E19051510F6422E4E0C21C0EFEF3D
:10414000D101052C01C0AA0F0A94EAF7CE1202C0D1
:104150006A2A02C0A0956A22822F8770873079F47C
:10416000422F487F6D2D812F9F2D29830E94D01DC6
:10417000662D812F9F2D0E94371E612C29812F5F74
:1041800087E0582E52222411DACFD1F0422F41502D
:10419000487F6D2D812F9F2D0E94D01D812F9F2D37
:1041A0000E940C1ED101052C01C0AA0F0A94EAF747
:1041B0006A2F619568236629812F9F2D0E94371EE3
:1041C000D394BD1408F061CF0F90DF91CF911F9170
:1041D0000F91FF90EF90DF90CF90BF90AF909F90A6
:1041E0008F907F906F905F904F903F902F900895A9
:1041F0002F923F924F925F926F927F928F929F92F7
:10420000AF92BF92CF92DF92EF92FF920F931F93E4
:10421000CF93DF931F92CDB7DEB7182FF92EB42EB0
:10422000A22EEE2DF0E0E40FF11D802F90E08E170E
:104230009F07D4F0A02FA770B0E01196E1E0F0E066
:104240000A2E01C0EE0F0A94EAF77E2E7194D62E44
:10425000202F287F2983802E8E1868EF562E582015
:10426000992493949E18ABC0EC2C812F9F2D0E9413
:10427000F61EA8C049816D2D812F9F2D0E94D01D53
:10428000812F9F2D0E940C1E482E4720282C452D43
:104290006D2D812F9F2D0E94D01D812F9F2D0E945B
:1042A0000C1E682E302E39C0E62DF0E0822D87706E
:1042B00002C0F595E7958A95E2F7E0FF0AC0832DE5
:1042C0008770E1E0F0E002C0EE0FFF1F8A95E2F791
:1042D0004E2A832D877069F4432D487F6D2D812FE1
:1042E0009F2D0E94D01D642D812F9F2D0E94371E6F
:1042F000412C3A94222099F02A94822D877087309D
:1043000061F4422D487F6D2D812F9F2D0E94D01D7D
:10431000812F9F2D0E940C1E682E2B1428F62E2C08
:10432000632C6E1828C0242F2770FFEFCF1209C00E
:1043300081E090E002C0880F991F2A95E2F7482A91
:104340000AC0E1E0F0E002C0EE0FFF1F2A95E2F79D
:104350009F0120954222842F877061F4487F6D2D44
:10436000812F9F2D0E94D01D642D812F9F2D0E9493
:10437000371E412C2A94462D420D2110D4CF492DB1
:10438000430D57E0252E2422C9F0487F6D2D812F43
:104390009F2D0E94D01D812F9F2D0E940C1E21E079
:1043A00030E0022C01C0220F0A94EAF7622F61501C
:1043B00068236429812F9F2D0E94371ED394AD144A
:1043C00008F058CF0F90DF91CF911F910F91FF9080
:1043D000EF90DF90CF90BF90AF909F908F907F90A5
:1043E0006F905F904F903F902F900895CF92EF92F3
:1043F0000F931F93CF93DF93EC016A3009F075C0E0
:104400008D819E81E0911C04F0911D040396199505
:10441000182F6C852985621768F48C818F3F11F401
:10442000E12C02C0EE24EA944D85012F040FCE0149
:104430000E94F61E8B85ED8481112DC00A852E2DDC
:1044400030E0210F311D210F311D402F50E0241786
:104450003507DCF08E85811101C030C0E394E01A8D
:10446000812F880FE80E8C818F3F11F4C12C02C080
:10447000CC24CA94298548856F81CE010E940620EC
:104480008F818C878A85811B2FC08F818C87E394D5
:10449000E10EED862AC048856E2D70E0212F30E0B8
:1044A000240F311D2617370734F48F818C87109520
:1044B0001E0D1D871AC08E85811103C081E08E8775
:1044C00014C0E394E41AE10E8C818F3F11F4C12CE7
:1044D00002C0CC24CA940A8529856F81CE010E942E
:1044E000F8208F818C8788858D87DF91CF911F91F0
:1044F0000F91EF90CF9008952F923F924F925F923D
:104500006F927F928F929F92AF92BF92CF92DF92E3
:10451000EF92FF920F931F93CF93DF93CDB7DEB748
:1045200065970FB6F894DEBF0FBECDBF9D8B8C8B09
:10453000DC0115968D919C911697009719F420E057
:1045400030E01AC2603228F48C899D890E94F621DD
:10455000DFC1E0911C04F0911D040396698B19954D
:10456000A82EEC89FD8985819681E0911C04F0914B
:104570001D0404961995182FAC89BD8915968D9147
:104580009C911697E0911C04F0911D0405961995D5
:10459000982E6989611798F2462F50E0282F30E055
:1045A000210F311D4217530754F62A2C312C61017B
:1045B000B7E0CB0ED11CE3E0D594C794EA95E1F7C0
:1045C000B62EB11AE0911C04F0911D04AC89BD898E
:1045D00015968D919C91169719958111B5C1EC890D
:1045E000FD8985819681E0911C04F0911D0401965E
:1045F0001995882309F48FC1A7C1E0911C04F0919B
:104600001D04C901800F911F1995E80EF11C0F5F61
:104610001F4F802F8650AC89BD8915962D913C91F6
:1046200016978B1550F3EC9CC001ED9C900DFC9CF3
:10463000900D1124092D10E00A5F1F4F080F191F5C
:104640008B2D90E00696E0911C04F0911D04820FE2
:10465000931F1995E82E21E02B83AC89BD891E9606
:104660008C911E97882339F06AE0CD010E947C224C
:10467000EC89FD891686AC89BD891C962C911C9706
:104680008E2D90E0820F911D19962C91199730E094
:10469000281739078CF46AE0CD010E947C22EC894E
:1046A000FD898685882341F06AE0CF010E947C2243
:1046B000AC89BD891E961C922A2D2F5F2C83F12C6C
:1046C000DC888A2D877028E030E0281B31093A8386
:1046D000298398012E0D311D388B2F874424439454
:1046E000512C3C81832E912C06C11D96CC901D9798
:1046F000CF0CBD884C2D487F1C966C918D2D9B2D29
:104700000E94D01D8F2D8695869586958E9DC00121
:104710001124612C712C9C01200F311F3A872987AD
:104720004F2D50E05E834D839A01287FA101421BEB
:10473000530B5C874B872F853889280F391F3E879D
:104740002D8796C0FA1410F589859A85860D971DD8
:10475000AC89BD8915964D915C911697E0911C042A
:10476000F0911D04840F951F1995682F2B8122232A
:1047700071F04B855C85483051054CF470E0098040
:1047800002C0759567950A94E2F701C060E0AC89B4
:10479000BD8914968C91811101C060952C2D2770D4
:1047A00059F48F2D877041F4C4014D815E81841BC3
:1047B000950B08970CF0CEC08D2D9B2D2B8B698B04
:1047C0000E940C1E382F4F2D8D859E85860D971DBE
:1047D00098878F832B896989C2C0C201022E01C0CC
:1047E000880F0A94EAF7382B08C0C201022E01C0D4
:1047F000880F0A94EAF780953823573061F5AC8921
:10480000BD8915968D919C911697E0911C04F091AD
:104810001D046F817885860F971F2B8B398B4A8BF0
:104820001995682F2B8939894A897B81772361F013
:10483000C101841B910908973CF470E0098002C013
:10484000759567950A94E2F7AC89BD8914968C91A9
:10485000811101C060952F5F283008F07AC04F5F4A
:104860005C81451708F075C07AC06FEF661A760A4A
:104870006E1408F467CF77E0C72229F4C4018F19BA
:104880009109089744F58D2D9B2D0E940C1ECC207C
:1048900041F0B2010C2C01C0660F0A94EAF7615096
:1048A00001C060E094012F193109283031054CF422
:1048B000D20102C0AA0FBB1F2A95E2F79D012195E4
:1048C000622BEC89FD899481911103C06095682B5E
:1048D0000BC0682309C0AC89BD8914968C918111E5
:1048E00002C06FEF01C060E08D2D9B2D0E94371E2E
:1048F000FC18B8E0FB0E2C81AC89BD89F21608F4D7
:10490000F4CE1C968C911C978F5F8E0D1C968C9309
:1049100021E030E031C0EC89FD8985819681E0910C
:104920001C04F0911D0402961995E82EBC9CC00150
:10493000BD9C900D1124E89E8001E99E100D11246C
:104940000A5F1F4F1B8289CE06E010E0E12CF12C9C
:1049500060CE632F8D2D9B2D0E94371E86CF542F46
:104960005770862F90E0052E02C0959587950A9482
:10497000E2F780FD32CF39CFC90165960FB6F894C2
:10498000DEBF0FBECDBFDF91CF911F910F91FF9082
:10499000EF90DF90CF90BF90AF909F908F907F90DF
:1049A0006F905F904F903F902F9008950C947C22D1
:1049B0000F931F93CF93DF931F921F92CDB7DEB754
:1049C0008C01DC0115968D919C911697009731F121
:1049D000E0911C04F0911D0402964A8369831995A5
:1049E0006981869F600D1124F8018781680F6487B3
:1049F00085819681E0911C04F0911D040396199520
:104A00004A81849F400D1124D80118968C911897E3
:104A1000480F1D964C931D971E961C920F900F9059
:104A2000DF91CF911F910F910895FC018781680F4D
:104A300064878085480F458716860895CF92DF9258
:104A4000EF92FF920F931F93CF93DF931F92CDB7F7
:104A5000DEB76C01DC011C96FC901C971D961C9126
:104A60001D9715968D919C911697E0911C04F091DD
:104A70001D04039669831995F601948169819F3F0E
:104A800011F4E12C02C0EE24EA94613061F018F0D8
:104A90006230E1F40FC0082F010FD60119962C9156
:104AA000412F6F2D10C0082F010F2F2D412FF60120
:104AB000678109C0082F010FD60119962C9119970B
:104AC000412F17966C91C6010E94F61E412F6F2D43
:104AD000C6010F90DF91CF911F910F91FF90EF9042
:104AE000DF90CF900C941525FC017683658330937D
:104AF0001D0420931C04448308954F925F926F928B
:104B00007F929F92AF92BF92CF92DF92EF92FF92ED
:104B10000F931F93CF93DF93CDB7DEB72A970FB6CE
:104B2000F894DEBF0FBECDBF8C016A017B01411539
:104B3000510561057105C1F460E32A960FB6F8943A
:104B4000DEBF0FBECDBFDF91CF911F910F91FF90C0
:104B5000EF90DF90CF90BF90AF909F907F906F903D
:104B60005F904F900C947C2277FF0BC06DE20E9407
:104B70007C22F094E094D094C094C11CD11CE11C20
:104B8000F11CAA24A394B12CAC0EBD1E912CAAE05A
:104B90004A2E512C612C712C12C08BE098120FC040
:104BA000FE01E90DF11D60816A3010F4605D01C005
:104BB000695CC8010E947C229A9491F712C0C701D7
:104BC000B601A30192010E949228F50161935F0151
:104BD000939469017A011C141D041E041F04ECF255
:104BE000DFCF2A960FB6F894DEBF0FBECDBFDF91A0
:104BF000CF911F910F91FF90EF90DF90CF90BF90DA
:104C0000AF909F907F906F905F904F900895CB01F1
:104C10000C94C628CB01642F0C94CE285058BB2787
:104C2000AA270ED075C166D130F06BD120F031F4D7
:104C30009F3F11F41EF45BC10EF4E095E7FB51C1F8
:104C4000E92F77D180F3BA176207730784079507B6
:104C500018F071F49EF58FC10EF4E0950B2EBA2F6B
:104C6000A02D0B01B90190010C01CA01A001112472
:104C7000FF27591B99F0593F50F4503E68F11A161E
:104C8000F040A22F232F342F4427585FF3CF4695AF
:104C900037952795A795F0405395C9F77EF41F16D1
:104CA000BA0B620B730B840BBAF09150A1F0FF0F9B
:104CB000BB1F661F771F881FC2F70EC0BA0F621F87
:104CC000731F841F48F4879577956795B795F79577
:104CD0009E3F08F0B3CF9395880F08F09927EE0F09
:104CE000979587950895D9D008F481E008950CD060
:104CF0000FC107D140F0FED030F021F45F3F19F032
:104D0000F0C0511139C1F3C014D198F39923C9F3FC
:104D10005523B1F3951B550BBB27AA2762177307C1
:104D2000840738F09F5F5F4F220F331F441FAA1F75
:104D3000A9F333D00E2E3AF0E0E830D09150504035
:104D4000E695001CCAF729D0FE2F27D0660F771FE3
:104D5000881FBB1F261737074807AB07B0E809F0C5
:104D6000BB0B802DBF01FF2793585F4F2AF09E3F5A
:104D7000510568F0B6C000C15F3FECF3983EDCF32C
:104D8000869577956795B795F7959F5FC9F7880FD3
:104D9000911D9695879597F90895E1E0660F771F25
:104DA000881FBB1F621773078407BA0720F0621BB6
:104DB000730B840BBA0BEE1F88F7E095089504D0AF
:104DC0006894B111D9C00895BCD088F09F5790F075
:104DD000B92F9927B751A0F0D1F0660F771F881F20
:104DE000991F1AF0BA95C9F712C0B13081F0C3D03B
:104DF000B1E00895C0C0672F782F8827B85F39F0D9
:104E0000B93FCCF3869577956795B395D9F73EF47E
:104E100090958095709561957F4F8F4F9F4F089526
:104E2000E89409C097FB3EF4909580957095619544
:104E30007F4F8F4F9F4F9923A9F0F92F96E9BB27FA
:104E40009395F695879577956795B795F111F8CF76
:104E5000FAF4BB0F11F460FF1BC06F5F7F4F8F4FE1
:104E60009F4F16C0882311F096E911C0772321F0D7
:104E70009EE8872F762F05C0662371F096E8862F6F
:104E800070E060E02AF09A95660F771F881FDAF7C6
:104E9000880F9695879597F90895990F0008550FF3
:104EA000AA0BE0E8FEEF16161706E807F907C0F0B0
:104EB00012161306E407F50798F0621B730B840BB8
:104EC000950B39F40A2661F0232B242B252B21F492
:104ED00008950A2609F4A140A6958FEF811D811D32
:104EE000089597F99F6780E870E060E008959FEF6C
:104EF00080EC089500240A94161617061806090671
:104F0000089500240A94121613061406050608953F
:104F1000092E0394000C11F4882352F0BB0F40F4C7
:104F2000BF2B11F460FF04C06F5F7F4F8F4F9F4F07
:104F3000089557FD9058440F551F59F05F3F71F089
:104F40004795880F97FB991F61F09F3F79F08795F0
:104F50000895121613061406551FF2CF4695F1DF79
:104F600008C0161617061806991FF1CF8695710509
:104F7000610508940895E894BB2766277727CB013D
:104F800097F908958ADF08F48FEF08950BD0C0CF0A
:104F9000B1DF28F0B6DF18F0952309F0A2CFA7CF34
:104FA0001124EACFC6DFA0F3959FD1F3950F50E00F
:104FB000551F629FF001729FBB27F00DB11D639FCB
:104FC000AA27F00DB11DAA1F649F6627B00DA11D71
:104FD000661F829F2227B00DA11D621F739FB00D17
:104FE000A11D621F839FA00D611D221F749F332787
:104FF000A00D611D231F849F600D211D822F762F20
:105000006A2F11249F5750408AF0E1F088234AF01C
:10501000EE0FFF1FBB1F661F771F881F9150504068
:10502000A9F79E3F510570F05CCFA6CF5F3FECF330
:10503000983EDCF3869577956795B795F795E79554
:105040009F5FC1F7FE2B880F911D9695879597F965
:10505000089523DF880B990B0895A29FB001B39F99
:10506000C001A39F01D0B29F700D811D1124911D1D
:1050700008950E942D28A59F900DB49F900DA49F88
:10508000800D911D11240895B7FF0C9439280E94BA
:105090003928821B930B0895DB018F939F930E9405
:1050A0003928BF91AF91A29F800D911DA39F900DB4
:1050B000B29F900D1124089597FB072E16F40094CB
:1050C00007D077FD09D00E94AE2807FC05D03EF43A
:1050D000909581959F4F0895709561957F4F0895A4
:1050E000A1E21A2EAA1BBB1BFD010DC0AA1FBB1FEC
:1050F000EE1FFF1FA217B307E407F50720F0A21B5E
:10510000B30BE40BF50B661F771F881F991F1A94CA
:1051100069F760957095809590959B01AC01BD01F4
:10512000CF010895052E97FB16F4009407D057FD84
:105130000DD00E94702807FC09D07EF490958095D0
:10514000709561957F4F8F4F9F4F08955095409573
:10515000309521953F4F4F4F5F4F0895AA1BBB1BC2
:1051600051E107C0AA1FBB1FA617B70710F0A61B67
:10517000B70B881F991F5A95A9F780959095BC0188
:10518000CD0108950790F691E02D1994F999FECF7D
:1051900092BD81BDF89A992780B50895262FF99977
:1051A000FECF1FBA92BD81BD20BD0FB6F894FA9A0A
:0C51B000F99A0FBE01960895F894FFCF05
:1051BC000120030000476577696E64650052504D0D
:1051CC003A0042657363682E205765673A00506F4A
:1051DC00736974696F6E3A004765772E204C616570
:1051EC006E67653A005374656967756E6720503A4F
:1051FC000020203C20202020203E2020203C3C2051
:10520C002020203E3E20002020474F20207C2020C4
:10521C0053746F7020207C205265742E003C20202B
:10522C0020205265742E206D616E75616C202020DB
:10523C003E003C202020205265742E206175746F36
:10524C0020202020203E005363686C656966656EE3
:10525C00004765736368773A003C202020202020AB
:10526C00204175746F202020202020203E004472A5
:10527C006568656E003C20474F20207C20205374CD
:10528C006F7020207C20474F203E00426577656779
:10529C00656E0045696C20472E3A004172622047CA
:1052AC002E3A004F7074696F6E656E005665727A97
:1052BC002E3A00537069656C3A00537065696368E7
:1052CC0065726E3F005A796B6C656E4175746F6DCB
:1052DC006174696B0043432042592D4E432D534159
:1052EC0020332E30006C6F61642064656661756CD0
:1052FC00742076616C756573006E616E00696E6604
:10530C00006F76660000000000D624651B000000CC
:0E531C0000811D651B00000000D624651B00EB
:00000001FF
